:020000040800F2
:1000000000000220890400089104000893040008FD
:1000100095040008970400089904000800000000F7
:10002000000000000000000000000000590300086C
:100030009D04000800000000110400087504000879
:10004000A3040008A3040008A3040008A3040008F4
:10005000A3040008A3040008A3040008A3040008E4
:10006000A3040008A3040008A3040008A3040008D4
:10007000A3040008A3040008A3040008A3040008C4
:10008000A3040008A3040008A30400080000000063
:10009000000000000000000000000000A3040008B1
:1000A000A3040008A3040008A3040008A304000894
:1000B000A3040008A3040008A3040008A304000884
:1000C000A3040008A3040008A3040008A304000874
:1000D000A3040008A3040008A30400080000000013
:1000E000A3040008A3040008A30400080000000003
:1000F000000000000000000000000000A304000851
:1001000000000000A3040008A3040008A3040008E2
:1001100000000000000000000000000000000000DF
:10012000A3040008A3040008A3040008A304000813
:10013000A304000800000000000000000000000010
:10014000000000000000000000000000A304000800
:10015000A3040008A3040008A3040008A3040008E3
:10016000A3040008A3040008000000000000000031
:10017000000000000000000000000000000000007F
:1001800000000000A30400080000000000000000C0
:10019000A3040008A304000800F002F800F098F897
:1001A0000AA090E8000C82448344AAF10107DA45D2
:1001B00001D100F08DF8AFF2090EBAE80F0013F08C
:1001C000010F18BFFB1A43F0010318476C8D0000A4
:1001D0008C8D0000103A24BF78C878C1FAD8520735
:1001E00024BF30C830C144BF04680C6070470000B1
:1001F0000023002400250026103A28BF78C1FBD830
:10020000520728BF30C148BF0B6070476E2900F00D
:100210009D87702900F0D982662908F0D781652969
:1002200008F0D481672908F0D181612908F0D081D4
:1002300003681B0A28BF41F08001692900F04A8247
:10024000642900F04782752900F044826F2901F08B
:100250008380782900F0A582E92901F01D80E42936
:1002600001F01A80F52901F01780EF2901F0808054
:10027000F82900F0A4820368DB0928BF41F080015F
:10028000632900F09E87732900F0A387E32901F01A
:10029000F787F32901F0FC87002070471FB508F0AD
:1002A00090F99DE8030000F0AEFE00F08AFE040025
:1002B0000020002108F0A4F8401C6060002000210C
:1002C00008F0B4F8E06001F0B5FA00F063FE1FBD7D
:1002D00005F0CCF906F024F807F0B6FD034800213C
:1002E00006F052F906F048F8FEE70000DC010020B5
:1002F00080F309887047EFF309807047684680F300
:10030000098804480078C00714BF0220032080F346
:1003100014887047EC850008DFF818C0EFF30583F8
:100320001B0618BF6047EFF31483DB0708BF604765
:1003300000DF704799690008DFF818C0EFF3058304
:100340001B0618BF6047EFF31483DB0708BF604745
:1003500000DF7047856B0008EFF30980816911F8B1
:10036000021CE1BB90E80F1010B5E047BDE810405B
:10037000EFF3098C8CE80700214B93E806009142CB
:1003800008BF704741B91EF0100F16D11D4908680B
:1003900020F00100086010E01EF0100F06BF2CEDE9
:1003A000108A0120002081F825002CE9F00FC1F807
:1003B0002CC00CB407F0B6F80CBC1A60D2F82CC0F4
:1003C000BCE8F00F92F8250000280EBF6FF0020E77
:1003D0006FF0120EBCEC108A8CF30988704710B5D0
:1003E000094A1268914209D8084C54F8214090E813
:1003F0000F10A047EFF3098C8CE80F0010BD000030
:10040000B801002034EF00E0903000089030000880
:1004100010B506F007FFBDE81040154B93E8060045
:10042000914208BF7047EFF3098C1EF0100F06BF12
:100430002CED108A0120002081F825002CE9F00F16
:10044000C1F82CC00CB407F06DF80CBC1A60D2F8DF
:100450002CC0BCE8F00F92F8250000280EBF6FF00A
:10046000020E6FF0120EBCEC108A8CF309887047F4
:10047000B801002010B507F03BF9CCE710B506F045
:1004800007F907F035F9C6E70648804706480047F0
:10049000FEE7FEE7FEE7FEE7FEE7FEE7FEE7FEE734
:1004A000FEE7FEE70946000899010008004870478A
:1004B0007427002010B500F084FD001D10BD00BFA2
:1004C000417F00000B3020F0070070472DE9F0411C
:1004D00017460E460446FFF7F5FFA042054633D9FE
:1004E000002F1CBF06F10C0005F022F9304674689D
:1004F000F4B12168A94217D305F1080291423CBF2B
:100500006168416007D3626861194A602268521BC2
:100510000A6041602560002F1CBF06F10C0005F049
:100520003DF9201DBDE8F08120466468002CE0D133
:100530002946304600F053FD0028D7D1002F1CBFBC
:1005400006F10C0005F02AF90020BDE8F08110B595
:10055000044600F031FD01682046BDE8104001224C
:10056000B4E770B516460D46041F002808BF70BDDD
:10057000002E1CBF05F10C0005F0DAF82B46586878
:10058000002818BFA04238BF0346F8D31968CA181C
:10059000A24218BF5C6003D122681C461144196056
:1005A00021680A19824218BF606004D14268626003
:1005B000006808442060002E1CBF05F10C0005F007
:1005C000EDF870BD10B5044600F0F6FC0168204659
:1005D000BDE810400122C4E71CB50C46064B7B4425
:1005E00069460090204600F0CAFD04460020694696
:1005F00000F0D8FD20461CBDC30B00000B46014691
:10060000184601F013BE00000FB41CB5084B06AA33
:100610007B4469460090059800F0B1FD0446002037
:10062000694600F0BFFD20461CBC5DF814FB0000CD
:10063000910B000070B5044685690068C10601D5BC
:10064000302600E02026C00707D070BDD4E9012184
:1006500030469047206A401C20626D1EF6D570BD62
:1006600070B5044685690078C00707D170BDD4E92C
:10067000012120209047206A401C20626D1EF6D583
:1006800070BD70B50C460546012A05D02878800655
:1006900000D5EA69002302E0012305E05B1C9342D8
:1006A00002D2E05C0028F9D1A869E618C01AA86156
:1006B000286A184428622846FFF7BCFF04E0D5E901
:1006C000012114F8010B9047B442F8D32846FFF7F4
:1006D000C7FF70BD2DE9F04106460024106875295A
:1006E000314616A510D000F0C6FC002802DA4042C0
:1006F00013A507E031688A0701D512A502E0490772
:1007000004D511A5012401E000F0BEFC00210A225D
:1007100006F1240709E0B0FBF2FCB0FBF2F302FBA8
:100720001C00303078541846491C0028F3D1234669
:100730002A463046BDE8F04100F0AFBC00000000A2
:100740002D0000002B00000020000000F0B40D463A
:100750000188090502D5214C7C4402E01F4C7C44F1
:100760000E34002100F1240608E002F00F07120900
:10077000E75D42EA03721B097754491C52EA0307FA
:10078000F3D102780023120704D5702D06D009B1E9
:10079000022311342246F0BC00F07FBC0123103448
:1007A000F8E770B504460D462146106800F06CFC71
:1007B000024629462046BDE870400023C6E7D21D08
:1007C00022F00703D3E90023C0E70368126843F06F
:1007D000200303600823C3610023B7E7AC84000053
:1007E0002DE9F05F894604464FF0000ADFF874B146
:1007F000FB44C0F820A02046E1688847002874D058
:10080000252806D0D4E901219047206A401C2062A7
:10081000F1E700265F462046E16888472028054624
:1008200007DB312D05D2781910F8200C08B10643EA
:10083000F1E7B00701D526F00406C4F81CA0002794
:10084000C4F818A02A2D09D0284604F069FF38B34F
:1008500004EB8708303DC8F8185019E059F8041B1C
:10086000204604EB87029161E1688847012F054625
:1008700018D1E069002820DA26F020061DE0D8F81B
:10088000180000EB800005EB40003038C8F8180075
:100890002046E1688847054604F042FF0028EED173
:1008A000012F0AD02E2D08D12046E16888477F1CF1
:1008B0000546022F46F02006C4DBA069002803DAB3
:1008C000404246F00106A061F00701D026F0100674
:1008D0006C2D0BD0682D09D04C2D39D06A2D35D018
:1008E000742D35D07A2D33D016E038E0E1682F46EC
:1008F00020468847B842054609D16C2F26D04FF4D0
:100900008060E168064320468847054604E06C2F76
:100910001AD04FF4807006430DB3A5F14100192899
:1009200002D8203546F400664A462946204626600D
:100930004E46FFF76BFC80B101280BD0F61D26F068
:10094000070000F1080956E74020E4E78020D8E7D7
:100950000020D6E706F104094DE7284652E7206A51
:10096000BDE8F09F3C8400000FB400B58DB010A925
:10097000099000910B904FF0FF300A9000200C90EE
:10098000064878440690064878446A4607900F99CE
:1009900009A800F00BFD0DB05DF814FB470A00003C
:1009A0005F0A00002DE9FF5F1D464FF0FF3B9146B7
:1009B0004FF000085F46D5E90146A96901987F1C00
:1009C0008847296A824688470028F6D1BAF1FF3F56
:1009D0000CD0002E24F4C06419DD600614D5BAF1E1
:1009E0002B0F09D0BAF12D0F0ED103E0584604B0F9
:1009F000BDE8F09F44F48064A96901987F1C884792
:100A0000761E8246002E02DDBAF1300F03D0B9F116
:100A1000000F26D032E0A969761E01987F1C44F4AD
:100A200000748847002E824605DDBAF1780F06D0A3
:100A3000BAF1580F03D0B9F1000F10D01EE0B9F190
:100A4000000F02D0B9F1100F18D1A969761E0198D4
:100A50007F1C24F4007488478246102002E008209E
:100A600000E00A20814609E0A96908FB0908761E12
:100A700001987F1C44F4007488478246002E05DDEF
:100A80004946504600F07EFC0028EDDAE9690198FD
:100A90008847A00502D46FF00100A8E7E00725D140
:100AA000600613D5600502D5C8F1000000E040469D
:100AB00029680A1D2A600968220501D5087015E019
:100AC000220701D5088011E008600FE02868011DA9
:100AD00029600068210502D580F8008006E0210722
:100AE00002D5A0F8008001E0C0F8008038467EE71B
:100AF00011B14FF4807201E04FF480624FF4007343
:100B000000F064BE2DE9F04704464FF000094FF0B5
:100B1000FF37C568D4E90486A80707D0204600F04F
:100B200011FE304604F048FE002802DA3846BDE8DF
:100B3000F087280502D54046FFF744FD4C212046AA
:100B400000F0BDF9206D20F0010020654846EEE779
:100B500070B505460A4E304604F0EAFD05F14C0436
:100B6000204604F0E5FD2846FFF7CCFF0546204669
:100B700004F014FE304604F011FE284670BD00005B
:100B8000480200202DE9F041044600F14C073846A8
:100B900004F0CEFDE068810712D0800601D5A66A78
:100BA00004E0A169606808442169461A204600F003
:100BB000C9FD002205463146204600F013FD00E045
:100BC0000025384604F0EAFD2846BDE8F0812DE90D
:100BD000F04118B1BDE8F041FFF7D4BF0B4E00253E
:100BE000304604F0A5FD0A4C6F1E07E02046FFF7D3
:100BF000C9FF00B13D46206D20F00104002CF5D165
:100C0000304604F0CBFD2846DFE700004802002014
:100C1000D42700202DE9F04716468846814602F188
:100C20004C07384604F084FD3046FFF76BFF18F898
:100C3000010B61280AD0722802D077283FD102E048
:100C40000125002405E00225042402E0082448F2DE
:100C5000020518F8010B2B2806D0622809D018F8D5
:100C6000010C74280AD00BE045F0030544F002049F
:100C7000EFE745F0040544F00104EAE744F010040E
:100C80004846214604F0DCFD411C18D000213161AA
:100C900071604FF40071F560F1617061200704D557
:100CA00030460222002100F09DFC306D40F0010032
:100CB0003065384604F072FD3046BDE8F087002606
:100CC000F7E72DE9F04115460E460746204C204631
:100CD00004F02EFD2A4631463846FFF79BFF0546B5
:100CE000204604F05BFD2846BDE8F0812DE9F04187
:100CF0000E468046164D284604F01AFD154C206D10
:100D0000C10704D0410804D020F00104F7E72246CF
:100D100012E05420FFF71BFC070017D0206D47F0AE
:100D20000101084354212065384600F0C8F807F156
:100D30004C0004F00DFD3A4631464046FFF76AFF8D
:100D40000446284604F02AFD2046CDE70024F8E7B3
:100D500048020020D42700202DE9F041074615461F
:100D60000E461020FFF7F3FB04000AD06760C4E9C9
:100D7000026500F02BF90168216004600020BDE8E5
:100D8000F0810120FBE710B5431C02E010F8011BC5
:100D900071B18107FAD14FF0013202C88C1A8C432D
:100DA00014EAC211F9D0C01A0A0603D0C01E10BD41
:100DB000C01A10BD0A0401D0801E10BD0902FCD06B
:100DC000401E10BD40EA010370B59B072ED14FF0C5
:100DD0000136042A2AD308C810C99D1B9D43121F3F
:100DE00015EAC61517D0D8B2E1B2401A50EA05612B
:100DF00010D198B2A1B2401A50EA05410AD123F0AD
:100E00007F4024F07F41401A50EA052102D1180E9C
:100E1000A0EB146070BDA342DBD018BA21BA88429F
:100E200001D9012070BD4FF0FF3070BD0AB900201C
:100E300070BD10F8013B11F8014B63B1A3420AD118
:100E4000521E08D010F8013B11F8014B1BB1A34210
:100E500001D1521EEDD1181B70BD10B5203AC0F063
:100E60000B80B1E81850203AA0E81850B1E81850AB
:100E7000A0E81850BFF4F5AF5FEA027C24BFB1E8E8
:100E80001850A0E8185044BF18C918C0BDE8104059
:100E90005FEA827C24BF51F8043B40F8043B08BF62
:100EA0007047D20728BF31F8023B48BF11F8012B29
:100EB00028BF20F8023B48BF00F8012B70474FF0D5
:100EC000000200B5134694469646203922BFA0E89A
:100ED0000C50A0E80C50B1F12001BFF4F7AF0907A6
:100EE00028BFA0E80C5048BF0CC05DF804EB890097
:100EF00028BF40F8042B08BF704748BF20F8022BDA
:100F000011F0804F18BF00F8012B70474FF0013CE3
:100F100050F8042B51F8043B9A4221D1A2EB0C0368
:100F2000934313EACC1317D150F8042B51F8043B28
:100F30009A4215D1A2EB0C03934313EACC130BD1C5
:100F400050F8042B51F8043B9A4209D1A2EB0C0350
:100F5000934313EACC13DBD04FF00000704700BF7F
:100F6000D01A01BAB1FA81F101F0180122FA01F0A8
:100F7000CB40C1F12001DBB2C0B2C01A2CFA01F3A0
:100F8000D11A914311EAC311E6D1704770477047F7
:100F90007047000070B5064C7C44064D7D4403E06C
:100FA000206820448047241DAC42F9D170BD000068
:100FB000E8800000E880000010B5FFF777FA0830FD
:100FC00010BD10B5FFF772FA203010BD10B5FFF755
:100FD0006DFA383010BD704770477047704738B5AC
:100FE00004460A4600206946AFF30080002808BF87
:100FF00038BD02460099204600F028FD012038BD8A
:10100000012001F050BBF8B5AFF300800546002089
:101010000C46102000BF0646A819A0420DD9324642
:1010200069460020AFF30080070008BF01F03BFBDA
:101030000098A04218BF0546C419FFF7BDFF056020
:101040000746F01D20F007004619284600F00AF870
:10105000B44208BFF8BDA21B31463868BDE8F8406D
:1010600000F0F4BC00210160C0E901100C3004F074
:101070006FBB1020704709684A0501D540B2704720
:10108000C905FCD500B2704709684A0501D5C0B250
:101090007047C905FCD580B270472DE9F0470D4671
:1010A00099469246044600F124080168880604D552
:1010B000E06921F01001216000E00120A84201DD7B
:1010C000471B00E00027A1697A1902EB0900081A02
:1010D000A0612078C00602D42046FFF7ABFA0026B4
:1010E00008E0D4E901211AF806009047206A401C64
:1010F000761C20624E45F4DB2078C0060AD52046D7
:10110000FFF798FA06E0D4E9012130209047206AE1
:10111000401C2062381EA7F10107F4DC07E0D4E987
:10112000012118F805009047206A401C2062281E03
:10113000A5F10105F3DC2046FFF792FA20780006BE
:1011400002D50220BDE8F0870120FBE711680268A4
:10115000006A530501D508700AE0D30501D508805F
:1011600006E0130603D5C217C1E9000200E00860DB
:101170000120704701694A1C02610878704700B578
:101180008FB0CDE901310021059105497944CDE9C0
:10119000031011466846FFF723FB0FB000BD0000A7
:1011A000E5FFFFFF0A6802F8010B0A60704710B5FF
:1011B000436913B1AFF3008001E0FFF762FA012049
:1011C00010BD127800F124010A7000224A70012239
:1011D000EDE711684FF0FF32E9E700002DE9FF5F0E
:1011E00015468A460446DFF8AC80F8440027D8E963
:1011F00000103E46CDE9001010E03AF816106A469D
:1012000002A801F024FA411C07D02178890603D5F1
:10121000E269391891420DD80744761C207880067F
:1012200002D5E069B84205DDAE42E6DB3AF81600C9
:101230000028E2D1A069C01BA0612046FFF7FAF99F
:10124000D8E90010CDE90010002017E03AF8181096
:101250006A4602A801F0FBF9B0F1FF3F81460BD0CE
:1012600000250DF1080B05E0D4E901211BF805006C
:1012700090476D1C4D45F7D308F10100B042804600
:10128000E4DB206A384420622046FFF7E9F9BDE834
:10129000FF9F0000567A00002DE9F0418046D21DE4
:1012A00022F007020025D2E90002F52915A614D084
:1012B000011E72F1000106DA0023D0EB030063EB9C
:1012C000020211A608E0D8F800108B0701D50FA67E
:1012D00002E0490701D50EA601251146002408F1B8
:1012E000240704E000F0D1FB30323A55641C50EA88
:1012F0000102F7D12B46324621464046BDE8F04177
:10130000FFF7CBBE000000002D0000002B00000006
:101310002000000030B4002100F1240408E002F0B5
:101320000705D208303542EA4372DB086554491C90
:1013300052EA0305F3D10468002310A2250708D55B
:1013400004F020040C4304D0C46901230CA2641EE1
:10135000C46130BCFFF7A1BE10B504462146106839
:10136000FFF792FE02462046BDE810400023D1E779
:10137000D21D22F00701D1E90023CBE700000000D5
:10138000300000003A2800D2303820F02002412AF4
:1013900001D3A2F13700884201D34FF0FF307047EC
:1013A000026811441378016018467047D1600549FE
:1013B0007944516104497944116200211161114657
:1013C00000F06ABFEDFFFFFFF54D0000426842B13B
:1013D000016811F8013B23B1521EC0E90012184602
:1013E00070470121C160881E704742685AB1C368C6
:1013F000016843B983688B4205D0491E521CC0E97D
:101400000012002070474FF0FF3070472DE9F04781
:1014100005460C46C86820F4201040F48000C860DF
:10142000800602D5084600F0B0F9E06841F282017A
:101430004FF0FF390140022903D0204600F04EF959
:10144000B5E000F42041B1F5004F0FD1C00306D53F
:101450006168E06A884200D80846606006E020695A
:10146000E0626060606904F0BFF9A061A0680022DA
:10147000EEB200280DDAE1688B050AD4C043A06003
:1014800041F490302260E0606068411C6160067049
:10149000A5E0E0689046226040F40050E0602069DA
:1014A00068BB606904F0B6F9012704F12405A0B116
:1014B000A08910F4407F08D0E069FFF748F8206168
:1014C00018B1E06840F4006016E0E7612561E0686B
:1014D00020F4407040F480600EE0E069FFF737F8D8
:1014E00000282061F1D0E06840F4006010F4407FF3
:1014F000E06002D140F48070E06020696060E068E4
:1015000025696FF0010AC1051FD56168E06A88424C
:1015100000D80846411B04D02246284600F0E8F8CF
:10152000F0BBE068010203D5E562C4E9015854E06C
:10153000691CE1626160E16940F48030491EC4E9E0
:10154000021030462E70BDE8F087010202D500F48B
:1015500080320AE06068411C61600670E0680A2E13
:1015600040F48030E06006D00022E16A6068814289
:1015700003D90B4602E00122F7E70346A7895B1B6C
:101580007F0503D4E7699F4200DDE2B1814200D8C4
:101590000146E5620F1AC4E90158002B09DD00E09D
:1015A00005E022461946284600F0A2F808B1484650
:1015B000C9E747B1A069E5626560C01BA061E0684A
:1015C00040F01000E060E068000208D56168A069A2
:1015D000E562491B08446560A0615046B3E73046A8
:1015E000B1E700002DE9F041044616460D46476973
:1015F000007B80072ED0384604F00CF950BB3EB378
:10160000012E02D0022E25D104E0204600F0FEFF7C
:1016100005441DE0384604F0E7F8E168002841F091
:101620001001E16005DA204600F058F80120BDE81D
:10163000F081C9030BD56268E16A914200D8114676
:10164000A26911442269891A814200DD08460544D5
:10165000002D01DA0220EAE7E16A6068E26881426F
:1016600006D29103E06203D522F4003141F010026A
:10167000A6690027AE4213DCE16A814201D90B461C
:1016800000E0034603EB060C2369ACEB030CAC450E
:1016900006DD814201D98C4600E084469C4505D197
:1016A000A760276042F02000A5620DE0AD1BE6694F
:1016B000AE1B8142A66000D90846C01A281A2060D5
:1016C0005819606022F0200003490840E0600020C3
:1016D00084F84870ABE70000BFCFD7FFC16821F4A2
:1016E000001141F08001C1600021816001607047FC
:1016F0002DE9F047814614460E464FF0FF38324838
:10170000D5685769054209D03846A16904F054F9F3
:10171000002811DB2C48C0430540E5602B463246CB
:101720004946384604F060F9A16920F00042B21A37
:1017300011440028A16103D02046FFF7CFFF4046A7
:10174000BDE8F08770B504460569C06A61688842E3
:1017500000D80846E16821F42011E160C90312D5E0
:10176000A84208D02246411B2846FFF7C1FF10B10E
:101770004FF0FF3070BD0020E562C4E90150E06821
:1017800020F48030E060002070BD10B50446C068D1
:1017900020F02000E060A16AA06988420DD02046B8
:1017A000FFF7D0FFE06820F4405040F01000E06008
:1017B000A06AA0612069E062606044F24001E068D4
:1017C0008843E06010BD0000100002002DE9F047E2
:1017D00004461E4690460D46C7684C30814603F0CD
:1017E000A7FFB80714D0780212D44046B8F5807F1E
:1017F00009D0B0F5007F06D0B8F5806F08D101267A
:1018000004F1240506E0701E6FF07F41884201D389
:10181000012409E02561E6616560E06820F47060FC
:1018200040EA0800E0600024484603F0B7FF204685
:10183000BDE8F08710B565485421FFF740FB6448C8
:101840005421FFF73CFB63485421FFF738FB624803
:101850005E49624A624B01605D4810605D4A1A60F1
:10186000431C0B65511C01650120106557484C3025
:1018700003F06EFF56484C3003F06AFF55484C3079
:1018800003F066FF574803F063FF58484F4A56A1DC
:101890007844FFF716FA20B9544878440A3800F023
:1018A000FBFE54484A4A52A17844FFF70AFA20B98D
:1018B000504878440A3800F0EFFE4F48454A4CA1A2
:1018C0007844FFF7FEF920B94B4878440A3800F015
:1018D000E3FE40233D48DC0000212246FFF776FF6F
:1018E00020B142487844543800F0D6FE38482246A9
:1018F00040230021FFF76AFF20B13E487844543866
:1019000000F0CAFE3348224610230021FFF75EFF95
:10191000002806D038487844BDE81040563800F01A
:10192000BBBE10BD2B482DE9F041006D2D4E20F0BF
:101930000104304603F0FCFE244D4C35284603F0EC
:10194000F7FE2248FFF7DEF8284603F027FF284677
:10195000AFF300801E4D4C35284603F0E9FE1C48CD
:10196000FFF7D0F8284603F019FF2846AFF30080B0
:10197000184D4C35284603F0DBFE1648FFF7C2F839
:10198000284603F00BFF2846AFF3008014E0206DDB
:1019900020F0010504F14C00074603F0C9FE204683
:1019A000FFF7B0F8384603F0F9FE3846AFF3008091
:1019B0002046FEF707FE2C46002CE8D1304603F007
:1019C000EDFE0848AFF30080BDE8F081D427002089
:1019D000282800207C2800203C0200204002002013
:1019E0004402002048020020720000004C730000F6
:1019F000770000003B7300002B7300002DE9F041DD
:101A00000646FFF7E3FA8046454613E016B1E06864
:101A1000B0420ED120682860D4E90101D8F80070E6
:101A200088472046FEF7CEFDD8F80000B842EBD13B
:101A300000E025462C68002CE8D1BDE8F08110B507
:101A400000F038FEBDE8104000F021BE30B404467E
:101A50008C464368002B18BF634538BF1846F8D33F
:101A600003681844604507D0C81C20F0070000F147
:101A7000040CACEB0100121A2146CCF8002030BC5B
:101A800000220CF10400FEF76CBD30B5B0F10A0283
:101A90004FEA900E71F100034EEA817EB0EB0E002A
:101AA00061EB91014FEA101E4EEA017E10EB0E0031
:101AB00041EB11114FEA102E4EEA016E10EB0E00B1
:101AC00041EB11214FEA104E4EEA014E10EB0E0091
:101AD00041EB1141401841F100014FEAD00040EACA
:101AE00041704FEAD10110EB80054FEA810444EACE
:101AF000907444EB01046D1944EB0404521BA341A0
:101B00004FF0000348BF0A3200D530BD401C41F100
:101B1000000130BD70472DE9FF4F0C461E464FF0C7
:101B2000FF378BB0D2E90001DDF860800A908A4669
:101B3000C1F30A5505B93D46002108464FF00000A3
:101B4000BAF1000F00F4400005DA00EB80004FF41A
:101B5000400101EA50004FEA9059B9F1010F00DD50
:101B6000B9460A9850EA4A000ED044F61050A5F241
:101B7000FF3545432F14B8F1000F1ED07542291EC2
:101B80001EDDC9F100021CE0B8F1010F4FF00000AA
:101B900001D0302103E0F24305E02154401CB04263
:101BA000FBDB30460022002121540B99C1F808804C
:101BB000C1E900200FB0BDE8F08FBD1B6D1CDEE752
:101BC0004A4600DA694206A800F0D4FD06AB93E865
:101BD000070003AB83E8070050460A9900F09CFE1B
:101BE0008DE80700A0F500501F3800900398002DE5
:101BF00009DD42F21F014A46084403A903906846E2
:101C000001F0FBF808E0A0F500504A461F3803A990
:101C10000390684601F005F98DE807000004000C08
:101C200003D04FF0FF30410800E01046B8F1000F3C
:101C300003D00022009215461EE0751E05D4FFF762
:101C400024FF303262556D1EF9D5B3460122084398
:101C500002D000227F1C04E02078302801D100222D
:101C60007F1E002A099786D01DE0112D07DAFFF7A5
:101C70000CFF303262556D1C50EA0102F5D1084369
:101C800002D00098C8B10EE00021681E05E0235C78
:101C9000625C63542254401E491C8142F7DBAB4610
:101CA000A81B401E0990002004F80B000B98099A0D
:101CB000C0F80880C0E9002B7CE711264FF000082F
:101CC00059E72DE9F04F88460446D21D22F007015E
:101CD00091B0D1E90001CDE90A0103F034FC0246DC
:101CE0000B98C00F01D02D2007E02068810701D597
:101CF0002B2002E0202101EAC000032A099001D034
:101D0000072A05DB03464146204600F0F3FC0BE1C1
:101D10002078800601D5E06900E00620B8F1650F63
:101D2000814606D0B8F1660F18D0B8F1670F70D1B0
:101D300031E00020B9F1110F009001DB112301E027
:101D400009F101030AAA01A90CA8FFF7E4FEDDE9E5
:101D50000C70002609F10105834647E001204B463F
:101D600000904FF000470AAA01A90CA8FFF7D3FE84
:101D7000DDE90DB00C995D46002610B909F10100AE
:101D80000D18B9EB050003D4C0F1FF3609F10105C8
:101D9000A5EB09002BE0B9F1010F01DA4FF00109C1
:101DA0000020B9F1110F0090484601DD112300E039
:101DB00003460AAA01A90CA8FFF7ADFEDDE90C70E5
:101DC0004D4600268346207800070AD4AB4500DA4A
:101DD0005D4601A8012D04DD411911F8011C3029CF
:101DE00007D04F4502DA17F1040F04DA01208246CA
:101DF0000FE06D1EEEE7002F02DCED1B3E4403E01A
:101E0000781CA84200DD7D1CB81B00F1010A4FF0D0
:101E100000472078000703D4AA4501DB4FF0FF3AC2
:101E20000021B7F1004F0DF143088DF8431024D085
:101E300002202B23002F01DA7F422D230A21021ECC
:101E4000A0F1010000DC5FB197FBF1FC97FBF1F220
:101E500001FB1C7C17460CF1300C08F801CDEEE7B5
:101E6000A8F1010003702188090501D5452100E092
:101E70006521A0F1010800F8011C09980FA9A1EB48
:101E80000807FF1D00B10120411901EBEA70A169AB
:101E90003844081A401EA0612078C00602D42046AB
:101EA000FEF7C8FB099828B1D4E901219047206AC0
:101EB000401C20622078C00622D52046FEF7BAFBDF
:101EC0001EE0002E04DBB34502DD01A8805D00E0CA
:101ED0003020D4E901219047206A401C2062761C02
:101EE000AAF101005FEA000A0AD1FFF76AF8C068A8
:101EF0000168405CD4E901219047206A401C2062BF
:101F0000281EA5F10105DCDC07E0D4E9012118F861
:101F1000010B9047206A401C2062381EA7F1010780
:101F2000F3DC2046FEF79CFB032011B043E60000E3
:101F30002DE9F04F04460D46D21D22F0070089B06E
:101F4000D0E9009248461746394603F0FCFA0246AB
:101F5000F80F01D02D2307E02068810701D52B233E
:101F600002E0202101EAC0038DF820300BB10120EE
:101F700000E00020032A824601D0072A04DB29461C
:101F8000204600F0B7FB3DE12078800601D40D2506
:101F900000E0E569C7F30A560D2D49DA00214FEA42
:101FA000175B08464FF00000002F00F4400007DAEE
:101FB00000EB80004FF4400100EBD07001EA6000BC
:101FC0008115012901DD4FF0FF3100224FEA850C18
:101FD000BCF1180F06D31346ACF118004FF0805235
:101FE000C24003E04FF4801323FA0CF30CF10C0C05
:101FF000BCF1200F04D3ACF1200C09FA0CF001E085
:1020000007FA0CF000294FF0004801DD18B90FE085
:102010000ED140450CD319EB02095F4121B940456F
:1020200002D19F4329EA0209BBEB175F00D0761C5F
:102030002088000502D57B48784402E0794878443E
:10204000193808AA302302F80A30037C0AF101018A
:10205000002E0AF1020A53546A4602DC4FF03001A6
:1020600001E04FF031014FF001088DF8001002D06F
:10207000A6F2FF3603E059EA470100D06A4E002D70
:1020800002DC2178090704D54FF002082E218DF8D3
:102090000110C44600210BE0C7F303433F01C35CBA
:1020A000491C6D1E02F80830052908F1010801DA03
:1020B000002DF1DC00210CE000EB1973491C1B78AA
:1020C0006D1E082902F808304FEA091908F10108C5
:1020D00001DA002DF0DC2178890602D514E0A8F1A0
:1020E0000108E04505DD02EB080111F8011C30296B
:1020F000F5D0B8F1000F07DD02EB080111F8011C63
:102100002E2901D1A8F10108002D05DD3E2102F89C
:1021100008106D1E08F10108407C002E02F808002E
:1021200008F1010804DA2D20764202F8080002E0E6
:102130002B2002F808000A214FF47A70864208F139
:1021400001080BDB96FBF0F3303302F8083096FB06
:10215000F0F308F1010800FB136601E0642E0CDBCC
:10216000642096FBF0F3303302F8083096FBF0F36E
:1021700008F1010800FB136601E00A2E06DB96FB5E
:10218000F1F0303002F8080008F1010896FBF1F098
:1021900001FB1060303002F80800A16908F1010865
:1021A00008EB050202EB0A00081AA0612078C006BD
:1021B00002D42046FEF73EFA216A08AE01EB0A007F
:1021C000206204E0D4E9012116F8010B9047BAF12E
:1021D000010AF7D22078C00602D52046FEF72AFA77
:1021E0006E4609E016F8010B3E280FD0D4E9012114
:1021F0009047206A401C2062B8F10108F2D22046C4
:10220000FEF72EFA09B00320BDE8F08F206A2844BB
:10221000206203E0D4E90121302090476D1EEBD30A
:10222000F8E70000236C000002FCFFFF2DE9F041FD
:1022300014460D46074601F14C06304603F078FA85
:10224000094B7B44224629463846FEF798FF044650
:10225000287B000601D54FF0FF34304603F09EFA8C
:102260002046BDE8F0810000C33B000010B5436983
:1022700013B1AFF3008001E0FEF7B0FF012010BD05
:10228000128800F1240182840022C2840122EDE739
:1022900011684FF0FF32E9E72DE9F34F4FF0000AE4
:1022A0000C4656468DB001200C9001F10C000B90AD
:1022B00062690B9801219047051E2DD0252D2CD049
:1022C000216A8847C0B162690B9801219047216A51
:1022D00088470028F7D16269411E0B98904700E0BB
:1022E000761CA1690D988847216A88470028F7D194
:1022F000E1690D988847DBE7A1690D988847A842F6
:10230000074601D1761CD3E7E1690D9888477F1C09
:1023100002D1BAF1000F6FD06BE162690B98002710
:102320003D46394690472A2804D162690B9801211D
:1023300090470125DFF8D08262690B980121904710
:10234000A0F130010A290AD24745E5DC07EB8701F5
:1023500000EB4107303FDFD445F01005ECE7E9061C
:1023600001D46FF000476C280AD04C2814D068289C
:1023700015D06A280DD074281CD07A281AD01DE0F8
:1023800062690B98012190476C2802D045F0040542
:1023900014E045F002050DE045F020050AE0626911
:1023A0000B9801219047682802D045F0080505E008
:1023B00045F4006562690B9801219047C4E9015713
:1023C00065283DD019DC58287AD00CDC452837D058
:1023D00004DC252826D041289ED131E046282FD084
:1023E000472899D12CE05B2877D0612828D0632832
:1023F0007CD0642823D15AE0F6E06F2848D008DC6E
:1024000066281DD067281BD0692821D06E2816D1D8
:1024100027E0702845D0732868D0752847D07828E1
:102420000DD14DE0A1690D988847252805463FF458
:1024300069AFE1690D9888476D1C3FF46AAFD8E039
:102440000D9923466A466FF00100AFF30080C5E0A6
:1024500045F0400023464FF000026060A80736D4E4
:102460003EE0E8077FF447AF2068011D2160006867
:10247000290501D506701BE7290701D5068017E756
:10248000A90703D5F117C0E9006111E706600FE75E
:1024900045F0400023464FF008026060A80716D4BC
:1024A0001EE040F60E0125EA0100606016E045F0EE
:1024B000400023464FF00A026060A80707D40FE0EF
:1024C00045F040006060A80708D5234610220D990A
:1024D0006FF00100AFF3008080E007E01022234698
:1024E0000D996FF00100FEF75DFA77E04FF00009FB
:1024F00063284F46C8464B46CB4602D05B2806D0E1
:1025000038E0E80601D40120A060012732E06269CA
:10251000D4F80CB00B98012190475E2807D14FF0FA
:10252000010949466269D4F80CB00B9890472169BB
:1025300039B900210A4603AB43F82120491C082978
:10254000FADBD8B3216949B308F1010862690B9835
:10255000012190475D28F4D1B9F1000F09D0002086
:1025600003A951F82020D24341F82020401C08281C
:10257000F7DB03AB2069002820794FEA40701ED0BA
:102580005B462246CDF80080CDE901970D990028E1
:102590006FF0010020DAAFF300801FE0C11703AA3B
:1025A00000EBD1614B1121F01F0102EB8302411AB4
:1025B00013680120884003431360C7E719E00D99B1
:1025C000224600286FF00100009702DAAFF3008086
:1025D00004E0AFF3008001E0AFF3008000280ADAE6
:1025E000401C06D10C9820B14FF0FF300FB0BDE871
:1025F000F08F5046FAE7E90701D10AF1010A0644D3
:1026000000200C9054E60000CCCCCC0C10B5014658
:10261000C268900703D0900607D5886A0AE000F0E8
:1026200067F801210160881E10BD8B694868184455
:102630000B69C01A91F848301BB191F84910401A43
:1026400010BD1103FCD50028FADD401E10BD70B589
:1026500016460C460546FDF72DFF036893F8010169
:10266000012806D0FF2C0FD8185D68B101202C700E
:1026700070BDD3F807013246214603F20713034425
:102680002846BDE8704018474FF0FF3070BD002865
:1026900001D000F027B8704710B500F0F3F8BDE89E
:1026A0001040FFF7F4BF10B500F006F9BDE8104088
:1026B000FFF7EDBF10B5002102A000F0C9F801201E
:1026C00010BD00005349475056464E3A205075728F
:1026D00065207669727475616C20666E2063616C2A
:1026E0006C65640001491820ABBEFEE726000200BD
:1026F00002F0A6BF2DE9F0411F46044603260168FB
:10270000072A01F4006004DB08B116A505E016A550
:1027100003E008B115A500E015A521F01000206028
:10272000A069C01EA0610FB1401EA0612046FDF748
:1027300081FF4FB1D4E9012138469047206A401CFF
:102740002062C01C206206E0206AFAE7D4E9012179
:1027500015F8010B9047761EF8D22046FDF780FF52
:10276000BDE8F0814E414E006E616E00494E46005C
:10277000696E66002DE9F047814616468AB03348F7
:1027800078440DC88DE80D0030487844801C03ACB7
:102790000DC884E80D0041F69B300844372190FBBA
:1027A000F1F290FBF1F5A5F1800501FB12041B3C51
:1027B00002D56442012000E00020DFF890A08046AE
:1027C0000027FA44AAF1BE0A0DE0E00709D032461C
:1027D000684607EB47010AEB810100F022FB8DE818
:1027E000070064107F1C002CEFD1184F7F44AC3FD2
:1027F00018E0E80714D007EB04100DF1180A90E870
:102800000E008AE80E00C068F04201D198190890C5
:10281000324606A903A800F004FB03AB83E80700D7
:102820006D10641C002DE4D132466946B8F1000FEA
:1028300003A802D000F0E1FA01E000F0F2FAC9E9E1
:102840000001C9F808200AB0BDE8F0876C650000F7
:1028500070B505460C460A2000E06D1C00F054F8E7
:1028600035B128780028F8D102E0641C00F04CF85B
:1028700014B120780028F8D1BDE870400A2000F09B
:1028800043B8000010B5014602A0FFF7E1FF0120A8
:1028900010BD000053494752545245443A205265F6
:1028A0006469726563743A2063616E2774206F7087
:1028B000656E3A200000000010B5012805D0002107
:1028C00003A0FFF7C5FF012010BD09A1F8E7000034
:1028D00053494752544D454D3A204F7574206F6609
:1028E0002068656170206D656D6F72790000000071
:1028F0003A2048656170206D656D6F727920636F55
:10290000727275707465640008B569468DF80000D0
:102910000320ABBE08BD70475FEA400C08BF91F0D2
:10292000000F4FEA8C234FEAC12243EA51514FEA8C
:102930001C5018BF00F5F0404FEA300018BF41F0BE
:1029400000415FEA6C5C00F02980BCF1FF3F08BFEA
:1029500040F080407047130C06BF12044FF0100C7B
:102960004FF0000C130E04BF12020CF1080C130FF1
:1029700004BF12010CF1040C930F04BF92000CF180
:10298000020CD30F04BF52000CF1010C11464FF0A2
:102990000002A0F11F00A0EB0C00704711F0004FE7
:1029A00008BF704731F000413FF4D5AF0B0C06BFB4
:1029B00009044FF0100C4FF0000C0B0E04BF09027D
:1029C0000CF1080C0B0F04BF09010CF1040C8B0F68
:1029D00004BF89000CF1020CCB0F04BF49000CF1BD
:1029E000010CCCF12003A0EB0C0022FA03F302FA55
:1029F0000CF241EA030100F10100704720F07F4C26
:102A000080EA030023F07F47ACEB070303F57C5318
:102A100000F0004003F1FF032DE980494FEA154B18
:102A200009B44FEA144325EA0B4E24EA03480FF297
:102A3000042606EB132749083E785FEA320203FBBF
:102A40000667C7F5000707FB06F64FEA54374FEA5B
:102A5000D64606F1020607FB066CCCF1005C4FEA95
:102A60001C472CEA074C07FB06F40CFB06F504EBAD
:102A700015464FEA961634BF00204FF000404FEA4B
:102A8000D13706FB07FC4FEA1C4C0CFB0BF7D21BA3
:102A900003FB0CF761EB07010CFB0EF7B0EB0740F3
:102AA00072EB17420CFB08F734BFA2EB0742B2EB04
:102AB000074261EB17414FEA0C444FEA910706FBCE
:102AC00007FC4FEA1C4C0CFB0BF7B0EBC74072EB5A
:102AD000573203FB0CF734BFA2EBC742B2EBC7423D
:102AE00061EB57310CFB0EF7B0EBC70072EB57727E
:102AF0000CFB08F734BFA2EBC702B2EBC70261EBD5
:102B00005771039F4FEA816141EA921104EBCC04B3
:102B10004FEAD1374FEA826206FB07FC42EA901285
:102B20004FEA80604FEA1C4C0CFB0BF7D21B03FBF7
:102B30000CF761EB07010CFB0EF7B0EB074072EBF3
:102B400017420CFB08F734BFA2EB0742B2EB074277
:102B500061EB17414FEA8C554FEA910704EB9C2437
:102B600006FB07FC4FEA1C4C0CFB0BF7B0EBC74015
:102B700072EB573203FB0CF734BFA2EBC742B2EB48
:102B8000C74261EB57310CFB0EF7B0EBC70072EB9D
:102B900057720CFB08F734BFA2EBC702B2EBC702B7
:102BA00061EB577115EB4C254FEA816141EA9211B7
:102BB0004FEA82624FEAD13742EA901206FB07FCE5
:102BC00044F100044FEA80604FEA1C4C0CFB0BF709
:102BD000D21B03FB0CF761EB07010CFB0EF7B0EB0C
:102BE000074072EB17420CFB08F734BFA2EB074219
:102BF000B2EB074261EB174115EB1C154FEA81312F
:102C000041EA92414FEA823242EA90424FEA8030F2
:102C10004FEA0C7644F1000448EA03434EEA0B48BD
:102C20004FF0000EB2EB080C71EB030724BF6246B5
:102C300039464EEB0E0E4FF0000B00185241494141
:102C40004BEB0B0BB2EB080C71EB03077BF1000BAA
:102C500024BF624639464EEB0E0E4FF0000B0018B3
:102C6000524149414BEB0B0BB2EB080C71EB0307E4
:102C70007BF1000B24BF624639464EEB0E0E51EA43
:102C8000020718BF46F0010616EB0E7655F100025A
:102C900054F1000103D5BDE88901BDE80088BDE815
:102CA0008901BDE80048B619524141EB0101A3F189
:102CB0000103704780807F7E7D7C7B7A7978777690
:102CC00076757473727171706F6E6E6D6C6C6B6A09
:102CD0006A696868676666656464636362616160A7
:102CE000605F5F5E5E5D5D5C5C5B5B5A5A59595824
:102CF000585757565655555554545353525252518E
:102D0000515050504F4F4F4E4E4D4D4D4C4C4C4BE3
:102D10004B4B4A4A4A49494948484847474747462A
:102D20004646454545444444444343434342424266
:102D300042414141002B26D4770021D01CB54FEAF7
:102D4000370703B44FF010004FF010014FF00000B0
:102D50000FBCBDE810400BF1010BBBF1010F08BF28
:102D60005FEA170722BF12F1010211F101014FF0D2
:102D7000004143F1000300F0004043EA00007047C7
:102D8000F9D35708DAE746EA064613F1400F4FEA4F
:102D900016461FDD13F1200FDFBF16430A46002140
:102DA00020335B42C8D0C3F1200746EA064602FA48
:102DB00007F74FEA164646EA0706C3F1200722FA4C
:102DC00003F201FA07F721FA03F14FF0000342EA98
:102DD0000702B1E746EA020646EA06464FEA164609
:102DE00046EA0106BCBF46EA0646360C4FF0000331
:102DF0004FF000024FF000019EE72DE9C0489346D6
:102E000030B491E8380007C831EA400C48BF34EAD2
:102E1000430C03D5FFF7F2FDFFF78CFFF0BCBDE8D4
:102E200000882DE9C048934630B491E8380007C8BF
:102E300010F0804F08BF13F0804F03D100F005F869
:102E4000FFF778FFF0BCBDE8008820F07F4780EAFC
:102E5000030023F07F4C07EB0C03A3F57C5300F039
:102E60000040A3F1FE0392F0000F00F0B38095F054
:102E7000000F00F077802DE901494FEA11404FEA39
:102E8000144621EA004800FB06FC24EA064708FB3A
:102E900006F607FB08F800FB07F718EB06484CEBB3
:102EA000164C4FEA124B18EB07484FEA15464CEB0D
:102EB000174022EA0B4E0BFB06FC25EA06470EFBE9
:102EC00006F607FB0EFE0BFB07F71EEB064E4CEB60
:102ED000164C4FF000061EEB074E4CEB174B18EB51
:102EE0000B0840F1000018EB0E0B58EB000840F106
:102EF00000008F1A4FF000013CBFC943661B14BF8E
:102F0000B5EB040C00213CBFC943F61B4FEA174444
:102F10004EEA8E0E27EA04454FEA1C4704FB07627F
:102F20002CEA074C05FB07F70CFB05F604FB0CFC31
:102F300016EB074642EB174216EB0C4642EB1C42DF
:102F40001BEB060658EB0202414146EA9E0601D5FC
:102F5000BDE80189B619524141EB0101A3F101031A
:102F6000BDE801894FEA14454FEA114724EA0546B6
:102F700021EA074C05FB07F406FB07F70CFB06F1FB
:102F800005FB0CFC11EB074144EB17444FEA1247D9
:102F900011EB0C4144EB1C4422EA074C05FB07F201
:102FA00006FB07F70CFB06F605FB0CFC16EB0746C9
:102FB00042EB174216EB0C4642EB1C456A1854F1E3
:102FC000000148BF7047B619524141EB0101A3F11E
:102FD0000103704795F0000F37D04FEA11424FEAD6
:102FE000144721EA024624EA074C02FB07F106FBDC
:102FF00007F70CFB06F402FB0CFC14EB074441EB57
:1030000017414FEA154714EB0C4441EB1C4125EAEC
:10301000074C02FB07F506FB07F70CFB06F602FB65
:103020000CFC16EB074645EB174516EB0C4645EB3B
:103030001C42121951F1000148BF7047B6195241A4
:1030400041EB0101A3F1010370474FEA14454FEA38
:10305000114724EA054621EA074C05FB07F106FB68
:1030600007F70CFB06F24FF0000605FB0CFC12EB19
:10307000074241EB174112EB0C4251EB1C4148BF98
:103080007047921841EB0101A3F101037047000062
:103090000000000010B503F03CF903F039F903F02B
:1030A0008FF810BD30B5014608460024024623467D
:1030B00013600BB1034D00E00025D56000BF00BFD9
:1030C00030BD0000118500085A49096821F44031DB
:1030D000594AC2F804131146D1F804134268114347
:1030E000544A11600168496821F480710268516096
:1030F00001684A68016942EA012102685160016879
:10310000496821F04071026851600168496882682D
:103110001143026851600168896821F40061026806
:10312000916001688968C268114302689160434AEE
:10313000816A914218D00168896821F07061026843
:10314000916001688968826A114302689160016830
:10315000896821F040510268916001688968C26AFB
:103160001143026891600BE00168896821F0706189
:10317000026891600168896821F04051026891609D
:103180000168896821F002010268916001688A681B
:10319000816942EA410102689160016AD1B1016826
:1031A000496841F40061026851600168496821F48E
:1031B00060410268516001684A68416A491E4FF4E3
:1031C000604393FAA3F3B3FA83F399400A43016887
:1031D0004A6005E00168496821F4006102685160B5
:1031E0000168C96A21F470010268D1620168CA6A83
:1031F000818B491E42EA01510268D16201688968E7
:1032000021F400710268916001688A68016B42EAEA
:103210004121026891600168896821F48061026837
:10322000916001688A68416942EA8121026891607F
:103230007047000004230140002001400100000FFE
:1032400018B502460020009000BF92F83C0001280B
:1032500001D1022018BD012082F83C0000BF08689F
:10326000092816D91068C0680B780A3B03EB4304A1
:103270000723A34098431368D8600B780A3B03EBFD
:103280004303886898401368DB6818431368D86064
:1032900013E0106800690B7803EB43040723A34095
:1032A0009843136818610B7803EB430388689840D0
:1032B00013681B691843136818614868072817D2F8
:1032C0001068406B0B795B1E03EB83041F23A34044
:1032D000984313685863088880B20B795B1E03EB30
:1032E0008303984013685B6B18431368586331E09D
:1032F00048680D2817D21068006B0B79DB1F03EBB1
:1033000083041F23A340984313681863088880B27E
:103310000B79DB1F03EB8303984013681B6B184387
:103320001368186316E01068C06A0B790D3B03EB55
:1033300083041F23A34098431368D862088880B28F
:103340000B790D3B03EB830398401368DB6A18434A
:103350001368D8621C4B1068984208D1086812287C
:1033600005D11A48006840F48000C3F80403164BE6
:103370001068984220D1164B0868984202D008681D
:10338000112819D11148006840F400000F4B186053
:103390000F4B086898420FD10E4800680E4BB0FBE7
:1033A000F3F000EB80004000009002E00098401E27
:1033B000009000980028F9D100BF002082F83C005E
:1033C00000BF00BF46E70000002001400423014089
:1033D00012000010FC01002040420F000146086866
:1033E000C06C704770B5044600250CB9012070BD53
:1033F0001549A06A884200D000BF206C30B9002077
:10340000606484F83C00204600F020F8206C00F056
:10341000100088B9206C20F4885040F0020020642D
:103420002046FFF751FE00206064206C20F002006F
:1034300040F00100206400E0012500BF002084F876
:103440003C0000BF2846D2E70100000F704770B56E
:1034500004460D4600262068806800F4806078B13C
:103460002068806800F4807050B1206C40F020002B
:10347000206400BF002084F83C0000BF012070BD24
:1034800000F0C0F9064612E0681C80B125B100F0DA
:10349000B9F9801BA8420AD9206C40F004002064CE
:1034A00000BF002084F83C0000BF0320E7E720684D
:1034B000006800F002000228E6D16FF012002168D7
:1034C0000860206C40F4007020642068806800F080
:1034D0004050B8B9A069A8B92068C06A00F470006B
:1034E00020B12068806800F4806058B9206C20F416
:1034F00080702064206C00F4805018B9206C40F07B
:10350000010020640020BAE708B5014600200090C1
:1035100000BF91F83C00012801D1022008BD012024
:1035200081F83C0000BF0868806800F00100A0B985
:103530000868806840F001000A6890602E480068C2
:103540002E4AB0FBF2F000EB4000009002E0009841
:10355000401E009000980028F9D10868806800F0AB
:103560000100002845D0086C40F20162904340F40D
:10357000807008640868406800F4806028B1086CB6
:1035800020F4005040F480500864086C00F480502F
:1035900020B1486C20F00600486401E00020486437
:1035A00000BF002081F83C0000BF6FF022000A68D5
:1035B00010601348006800F01F0058B90868806860
:1035C00000F04050A8B90868806840F080400A6860
:1035D00090600EE00B4A086890420AD10868806843
:1035E00000F0405028B90868806840F080400A68C0
:1035F0009060002092E70000FC01002040420F0094
:103600000423014000200140014691F835000228C2
:1036100003D08020486501207047052081F83500DF
:103620000868006820F001000A6810600020F3E7D5
:10363000F8B503460A460025002400200021CDE00D
:10364000012606FA01F5166806EA0504AC4273D1B4
:103650005668022E02D05668122E13D1CF0803F1FD
:10366000200656F827004E07F70E0F26BE40B0433F
:103670004F07FF0E1669BE403043CF0803F1200606
:1036800046F8270018684F000326BE40B04316795D
:1036900006F003064F00BE40304318605668012E06
:1036A00008D05668022E05D05668112E02D05668F2
:1036B000122E13D198684F000326BE40B0434F002E
:1036C000D668BE4030439860586801268E40B043AB
:1036D0001679C6F300168E4030435860D8684F0004
:1036E0000326BE40B0434F009668BE403043D860CA
:1036F000566806F08056B6F1805F6ED100BF002696
:103700000096384E366846F48046364F3E603E4658
:10371000366806F48046009600BF00BF324E8F0820
:1037200056F827008E07370F0F26BE40B0432F4EA6
:10373000B34202D1002615E04FE02D4EB34201D135
:1037400001260FE02B4EB34201D102260AE02A4E99
:10375000B34201D1032605E0284EB34201D104262D
:1037600000E005268F073F0FBE4030431E4E8F08F6
:1037700046F82700224E3068A043566806F480368B
:10378000B6F5803F00D120431D4E3060361D3068B5
:10379000A043566806F40036B6F5003F00D120433A
:1037A000174E361D3060361D3068A043566806F44B
:1037B0008016B6F5801F00D12043114E08363060C8
:1037C000361D3068A043566806F40016B6F5001F93
:1037D00000D120430A4E0C363060491C1029FFF4FA
:1037E0002FAFF8BD443802400838014000000240C5
:1037F0000004024000080240000C02400010024099
:10380000003C014001480068704700000C020020A5
:1038100002480068401C0149086070470C02002003
:1038200010B50D48006840F400700B490860084668
:10383000006840F4806008600846006840F48070CA
:103840000860032000F080F80F2000F007F800F077
:1038500079F8002010BD0000003C024038B5044655
:1038600000BF002000903048006840F008002E495A
:1038700008600846006800F00800009000BF00BF24
:1038800029482038006840F008002749203908609E
:103890000846006820F00800086000F055FE234844
:1038A000234908604FF0FF312148C160214800687A
:1038B0002149B0FBF1F0401E1D49486000211C4821
:1038C00001618160416100F095FB1C49322001F0EB
:1038D00053FE322000F01F02012191404209920064
:1038E00002F1E022C2F8001100BF0021104800F0F0
:1038F0009DFB04210E4800F099FB0D480068406ACA
:103900000F4908600846006800F57A7008490968A0
:10391000886307480068C06840F0040004490968EB
:10392000C860002038BD000040380240000C004054
:10393000C8220020FC01002040420F0095820008B0
:10394000F80100207047000000BF00F00702064B9E
:1039500019684FF6FF031940044B0B4343EA022159
:10396000014B196000BF70470CED00E00000FA0544
:1039700070B504460D4600266D48006800F00F0043
:10398000A84209D26A490D700846006800F00F008D
:10399000A84201D0012070BD207800F0020002286A
:1039A00007D16448006820F0F000A168084361492D
:1039B0000860207800F00100002877D060680128B6
:1039C00007D15C4808380068C0F34040B8B901200E
:1039D000E1E76068022802D06068032807D15548F3
:1039E00008380068C0F3406048B90120D3E7514867
:1039F00008380068C0F3400008B90120CBE74D4803
:103A0000006820F00300616808434A490860FFF736
:103A1000F9FE06466068012810D108E0FFF7F2FEC3
:103A2000801B41F28831884201D90320B3E7414825
:103A3000006800F00C000428F0D137E0606802282C
:103A400010D108E0FFF7DEFE801B41F2883188428A
:103A500001D903209FE73748006800F00C000828D0
:103A6000F0D123E06068032810D108E0FFF7CAFE18
:103A7000801B41F28831884201D903208BE72D4811
:103A8000006800F00C000C28F0D10FE008E0FFF710
:103A9000B9FE801B41F28831884201D903207AE7C0
:103AA0002448006800F00C000028F0D1204800688D
:103AB00000F00F00A84209D91D490D7008460068A2
:103AC00000F00F00A84201D0012064E7207800F048
:103AD0000400042807D11748006820F4E050E1688A
:103AE000084314490860207800F00800082808D12D
:103AF0001048006820F46040216940EAC1000D4987
:103B0000086000F04FF80B49096801F0F001F0225D
:103B100092FAA2F2B2FA82F2D140074A515CC8404E
:103B2000064908600F20FFF799FE002033E70000E8
:103B3000003C024008380240B48B0008FC01002021
:103B40000148006870470000FC01002000B5FFF745
:103B5000F7FF0749096801F4E0514FF4E05292FA87
:103B6000A2F2B2FA82F2D140024A515CC84000BDD2
:103B700008380240B48B000800B5FFF7E1FF0749A1
:103B8000096801F460414FF4604292FAA2F2B2FA7D
:103B900082F2D140024A515CC84000BD0838024060
:103BA000B48B000870B50021002200230020274CB0
:103BB000246804F00C0424B1042C04D0082C41D156
:103BC00003E0234840E023483EE0204C241F2468C3
:103BD00004F03F011D4C241F246804F4800484B1C8
:103BE0001C4CB4FBF1F5194C241F246847F6C07631
:103BF000344096FAA6F6B6FA86F6F44005FB04F2CF
:103C00000FE0134CB4FBF1F5104C241F246847F669
:103C1000C076344096FAA6F6B6FA86F6F44005FB6E
:103C200004F20A4C241F246804F440344FF4403555
:103C300095FAA5F5B5FA85F5EC40641C6300B2FB76
:103C4000F3F001E0024800BF00BF70BD0838024039
:103C50000024F40000127A0038B5044600252078CC
:103C600000F00100002848D0DE48006800F00C0099
:103C700004280DD0DB48006800F00C00082811D1A2
:103C8000D848001F006800F48000B0F5800F09D10B
:103C9000D44808380068C0F3404070B3606860BB27
:103CA000012038BD2079CF49891F0870606890B124
:103CB000FFF7A8FD054606E0FFF7A4FD401BC82856
:103CC00001D90320EDE7C74808380068C0F3404039
:103CD0000028F1D011E0FFF795FD054606E0FFF75B
:103CE00091FD401BC82801D90320DAE7BD480838F8
:103CF0000068C0F340400028F1D1207800F00200B5
:103D0000022869D1B748006800F00C0058B1B548E6
:103D1000006800F00C00082821D1B248001F00689C
:103D200000F48000D8B9AF4808380068C0F34000FC
:103D300020B1E068012801D00120B2E7A948083885
:103D4000006820F0F800F82292FAA2F2B2FA82F2A9
:103D5000216991400843A349083908603CE0E068C4
:103D600028B30120A0490860FFF74CFD054606E096
:103D7000FFF748FD401B022801D9032091E799482D
:103D800008380068C0F340000028F1D09548083892
:103D9000006820F0F800F82292FAA2F2B2FA82F259
:103DA0002169914008438F490839086014E00020D8
:103DB0008D490860FFF726FD054606E0FFF722FD66
:103DC000401B022801D903206BE7864808380068A9
:103DD000C0F340000028F1D1207800F00800082846
:103DE0002CD16069A8B1012080490860FFF70AFD65
:103DF000054606E0FFF706FD401B022801D9032017
:103E00004FE778486C300068C0F340000028F1D0DC
:103E100014E0002075490860FFF7F4FC054606E051
:103E2000FFF7F0FC401B022801D9032039E76D4859
:103E30006C300068C0F340000028F1D1207800F019
:103E40000400042857D100BF002000906548383096
:103E5000006840F0805063493831086008460068C7
:103E600000F08050009000BF00BF6148006840F43F
:103E700080705F490860FFF7C5FC054606E0FFF764
:103E8000C1FC401B022801D903200AE758480068FA
:103E900000F480700028F2D0207A5249683108700E
:103EA000A068A0B1FFF7AEFC054608E0FFF7AAFC4A
:103EB000401B41F28831884201D90320F1E649488C
:103EC00068300068C0F340000028EFD013E0FFF72F
:103ED00099FC054608E0FFF795FC401B41F288314C
:103EE000884201D90320DCE63E4868300068C0F310
:103EF00040000028EFD1A069F0B33A48006800F014
:103F00000C00082869D0A069022850D10020364949
:103F10000866FFF777FC054606E0FFF773FC401BD9
:103F2000022801D90320BCE62E4808380068C0F3F7
:103F300040600028F1D1D4E90701084347F6C07278
:103F400092FAA2F2B2FA82F2616A91400843012227
:103F5000A16AC2EB51014FF4403292FAA2F2B2FAD6
:103F600082F2914008434FF0706292FAA2F2B2FAE4
:103F700082F2E16A914000E031E008431949091FEB
:103F80000860012018490866FFF73CFC054606E07A
:103F9000FFF738FC401B022801D9032081E61148B5
:103FA00008380068C0F340600028F1D017E0002016
:103FB0000D490866FFF726FC054606E0FFF722FCE0
:103FC000401B022801D903206BE606480838006828
:103FD000C0F340600028F1D101E0012061E600203B
:103FE0005FE600000838024000004742800E47426A
:103FF0000070004010B504460CB9012010BD94F8C3
:10400000390028B9002084F83800204600F00CF868
:10401000022084F83900211D206800F03FFB0120B8
:1040200084F839000020E9E77047000030B5044605
:104030000D4601222946206800F088FB0A492068C5
:10404000884201D1012000E0002028B12068406CA6
:1040500040F40040216848642068006840F0010096
:1040600021680860002030BD0000014008B50168EB
:10407000096801F0010119B10168496800911AE06D
:1040800001680968C1F3400119B1016849680091EC
:1040900011E001680968C1F3800119B1016849683C
:1040A000009108E001680968C1F3C00119B1016815
:1040B0004968009100BF08BD2DE9F047044620681B
:1040C00005682068C668206847694FF00008C14647
:1040D00005F00F08B8F1000F0AD105F0200038B143
:1040E00006F0200020B1204600F068FBBDE8F08714
:1040F000B8F1000F6CD040F201103840002867D0B2
:1041000005F0010030B106F4807018B1E06B40F0AA
:104110000100E06305F0040030B107F0010018B1C0
:10412000E06B40F00200E06305F0020030B107F000
:10413000010018B1E06B40F00400E06305F00800F6
:1041400030B107F0010018B1E06B40F00800E06307
:10415000E06B00283BD005F0200028B106F02000DD
:1041600010B1204600F02AFB20684069C0F3801996
:10417000E06B00F0080010B9B9F1000F22D0204622
:1041800000F0FCFA2068406900F04000B0B12068FF
:10419000406920F0400021684861606B50B11748C9
:1041A000616B0865606BFFF72FFA80B1606B016D82
:1041B00088470CE02046FFF759FF08E02046FFF74C
:1041C00055FF04E02046FFF751FF0020E0638DE734
:1041D00005F0800030B106F0800018B1204600F0F4
:1041E000EFFC83E705F0400030B106F0400018B165
:1041F000204600F0D3FA79E700BF77E76947000867
:1042000010B504460CB9012010BDA06900B100E052
:1042100000BF94F8390028B9002084F838002046FF
:1042200000F027F8242084F839002068C06820F4C2
:1042300000502168C860204600F00EFB206800692D
:1042400020F49040216808612068406920F02A002D
:10425000216848612068C06840F400502168C86047
:104260000020E063202084F8390084F83A00002020
:10427000CAE77047704701680968C1F3801119B136
:104280006FF0400102681160704710B5012000F026
:104290000BF840B9002000F007F820B900F05CF8F6
:1042A00008B900BFFEE710BD10B592B0044600BFCC
:1042B000002000902648006840F0805024490860A3
:1042C0000846006800F08050009000BF00BF00BFAB
:1042D000002000901F48006820F4404040F4004057
:1042E0001C4908600846006800F44040009000BF88
:1042F00000BF012001900CB9029001E0052002905E
:10430000022007904105089104210991C0210A91DA
:1043100004210B9108210C9101A8FFF79DFC10B11D
:10432000002012B010BD0F200D9002200E90002032
:104330000F904FF4805010900020119003210DA891
:10434000FFF716FB08B10020EBE70120E9E70000CA
:10435000403802400070004000B593B000BF00201C
:1043600001902748006840F08050254908600846C1
:10437000006800F08050019000BF00BF00BF002027
:1043800001902048006820F4404040F400401D495E
:1043900008600846006800F44040019000BF00BF7C
:1043A0000320029001200590002003901020069029
:1043B000022008900021099108210A91C0210B9147
:1043C00004210C9108210D9102A8FFF745FC10B1C2
:1043D000002013B000BD0F200E9002200F9000208F
:1043E00010904FF4805011900020129003210EA8DD
:1043F000FFF7BEFA08B10020EBE70120E9E7000073
:10440000403802400070004038B504460025082CB2
:1044100072D2DFE804F00416283A4C71715E3A4D0E
:1044200000BF002000903948006840F00100374983
:1044300008600846006800F00100009000BF00BF5F
:104440005EE0334D00BF002000903048006840F02F
:1044500002002E4908600846006800F00200009043
:1044600000BF00BF4CE02B4D00BF0020009027484C
:10447000006840F00400254908600846006800F024
:104480000400009000BF00BF3AE0234D00BF0020B1
:1044900000901E48006840F008001C49086008466B
:1044A000006800F00800009000BF00BF28E01B4D2E
:1044B00000BF002000901548006840F0100013492C
:1044C00008600846006800F01000009000BF00BFC0
:1044D00016E0134D00BF002000900C48006840F02B
:1044E00080000A4908600846006800F080000090DB
:1044F00000BF00BF04E0FFE70AA001F068FC00BFB6
:1045000000BF284638BD000000000240303802409D
:104510000004024000080240000C0240001002406B
:10452000001C024050696E6D6170206572726F727E
:104530003A2077726F6E6720706F7274206E756D9F
:104540006265722E0000000070B500200022022378
:1045500000240221274D2D6805F00C0020B104280D
:1045600006D0082834D107E0234D244E356033E0CF
:10457000234D224E35602FE01E4D2D1F2D68C5F3B3
:1045800080541C4D2D1F2D6805F03F0154B11C4D6A
:10459000B5FBF1F5174E361F3668C6F3881605FBD6
:1045A00006F209E0144DB5FBF1F5124E361F3668E0
:1045B000C6F3881605FB06F20E4D2D1F2D68C5F3B8
:1045C00001456D1C6B00B2FBF3F50C4E356003E04A
:1045D000094D0A4E356000BF00BF064D2D68C5F37A
:1045E0000315084E705D054D2D68C540034E3560BE
:1045F00070BD0000083802400024F400FC010020D7
:1046000000127A00708B000810B51E48006840F454
:1046100070001C4908601C48006840F001001A49FD
:1046200008600020184908310860174800681749D9
:104630000840154908601648091D0860081F0068F1
:1046400020F48020091F086000200F490C31086009
:104650004FF000600B49803908600E480E49086031
:10466000FFF7DEF8FFF711FE07482030006840F042
:1046700008000549203108600846006820F008005D
:10468000086010BD88ED00E000380240FFFFF6FE34
:10469000103000240024F400FC01002000220268F5
:1046A000234B98420BD0B0F1804F08D0214B984259
:1046B00005D0214B984202D0204B984201D10123D2
:1046C00000E000231BB122F070024B681A43184B24
:1046D000984214D0B0F1804F11D0164B98420ED0B2
:1046E000154B98420BD0154B984208D0144B98426A
:1046F00005D0144B984202D0134B984201D10123AC
:1047000000E000231BB122F44072CB681A43026020
:104710008B68C3620B688362054B984201D1012309
:1047200000E000230BB10B69036301234361704771
:10473000000001400004004000080040000C004060
:1047400000400140004401400048014030B50023D2
:10475000012404FA01F3046A9C430462046A02FA25
:1047600001F52C43046230BD70B50546AC6B0020EA
:10477000E085E0842046FFF779FC70BD0168C968D8
:1047800021F490710268D1600168496921F001014A
:1047900002685161202180F83A10704710B5044634
:1047A0002068C06820F040002168C860202084F89C
:1047B00039002046FFF75FFD002010BD70B50446AC
:1047C00094F83A00222844D1A068B0F5805F13D154
:1047D000A56A206940B920684068C0F308002880B5
:1047E000A06A801CA06219E020684068C0B22880DE
:1047F000A06A401CA06211E0206938B920684068B6
:10480000C1B2A26A501CA062117007E02068406823
:1048100000F07F01A26A501CA0621170E08D401E62
:1048200080B2E08598B92068C06820F49070216853
:10483000C8602068406920F001002168486120209C
:1048400084F83A002046FFF715FD002070BD0020D7
:10485000FCE70220FAE700002DE9F04104460025BC
:104860002068056925F44055E06805432068056126
:104870002068C56849F20C6085432169A068084337
:1048800061690843E169084305432068C560206801
:10489000456925F44075A069054320684561E069D4
:1048A000B0F5004F7ED1C4492068884203D0C34987
:1048B000206888425DD1FFF75FF900EBC00101EB92
:1048C000001061684900B0FBF1F06421B0FBF1F029
:1048D0000601FFF751F900EBC00101EB0010616820
:1048E0004900B0FBF1F7FFF747F900EBC00101EB1E
:1048F000001061684900B0FBF1F06421B0FBF1F0F9
:1049000000EBC00101EB0010A7EB8000322101EBAE
:10491000C0006421B0FBF1F000F0F80006EB4006A7
:10492000FFF72AF900EBC00101EB001061684900B4
:10493000B0FBF1F7FFF720F900EBC00101EB00102D
:1049400061684900B0FBF1F06421B0FBF1F000EBCD
:10495000C00101EB0010A7EB8000322101EBC00089
:104960006421B0FBF1F000F007003044216888605A
:1049700020E1FFF7EBF800EBC00101EB00106168EC
:104980004900B0FBF1F06421B0FBF1F00601FFF744
:10499000DDF800EBC00101EB001061684900B0FBDD
:1049A000F1F700E045E0FFF7D1F800EBC00101EBC3
:1049B000001061684900B0FBF1F06421B0FBF1F038
:1049C00000EBC00101EB0010A7EB8000322101EBEE
:1049D000C0006421B0FBF1F000F0F80006EB4006E7
:1049E000FFF7B4F800EBC00101EB0010616849006B
:1049F000B0FBF1F7FFF7AAF800EBC00101EB0010E4
:104A000061684900B0FBF1F06421B0FBF1F000EB0C
:104A1000C00101EB0010A7EB8000322101EBC000C8
:104A20006421B0FBF1F000F0070030442168886099
:104A3000C0E061492068884203D06049206888420C
:104A40005CD1FFF799F800EBC00101EB0010616841
:104A50008900B0FBF1F6FFF78FF800EBC00101EB26
:104A6000001061688900B0FBF1F06421B0FBF1F047
:104A700000EBC00101EB0010A6EB8000322101EB3E
:104A800000106421B0FBF1F000F0F006FFF774F8BD
:104A900000EBC00101EB001061688900B0FBF1F090
:104AA0006421B0FBF1F006EB0016FFF765F800EBB0
:104AB000C00101EB001061688900B0FBF1F7FFF75E
:104AC0005BF800EBC00101EB001061688900B0FBEE
:104AD000F1F06421B0FBF1F000EBC00101EB00103C
:104AE000A7EB8000322101EB00106421B0FBF1F054
:104AF00000F00F003044216888605BE0FFF726F883
:104B000000EBC00101EB001061688900B0FBF1F619
:104B1000FFF71CF800EBC00101EB00106168890091
:104B2000B0FBF1F06421B0FBF1F000EBC00101EB50
:104B30000010A6EB8000322101EB00106421B0FBD5
:104B4000F1F000F0F006FFF701F800EBC00101EB17
:104B5000001061688900B0FBF1F06421B0FBF1F056
:104B600006EB0016FEF7F2FF00EBC00101EB0010B0
:104B700061688900B0FBF1F7FEF7E8FF00EBC001C8
:104B800001EB001061688900B0FBF1F06421B0FB1B
:104B9000F1F000EBC00101EB0010A7EB8000322127
:104BA00001EB00106421B0FBF1F000F00F00304485
:104BB00021688860BDE8F0810010014000140140C8
:104BC000014691F8390021282CD18868B0F5805F22
:104BD0000FD10A6A1088C0F308000B685860086992
:104BE00018B9086A801C086209E0086A401C08625B
:104BF00005E00B6A581C086218780B685860C88C6E
:104C0000401E80B2C88458B90868C06820F080008F
:104C10000B68D8600868C06840F040000B68D86036
:104C2000002070470220FCE710B50848006800B17A
:104C300010BD03220221064802F012FF4FF4165164
:104C4000034802F003FF00BFF2E700000802002063
:104C50006C2500202DE9FF5F07460D4690466C4607
:104C6000B7F9006000200090019002900390314657
:104C7000204601F03BF900BF4FF0000942E06C46CE
:104C800000BF00BF00BF00BF00BF00BFBDF90000F4
:104C9000401C20B93E22214921A001F0C3FA00BFE7
:104CA000029800680199084008B1012000E0002046
:104CB00008B9012000E000208246D3465E4600BFCE
:104CC00000BF00BF00BFB4F90000401C20B934226F
:104CD000124913A001F0A6FA00BF1EB1E168606896
:104CE000086003E0A0880004E168086000BF00BF1E
:104CF00000BF4FF47A7090FBF5F4204603F06AFB96
:104D000009F101094FF47A7090FBF5F098FBF0F08F
:104D10004845B4DC002004B0BDE8F09FF48E0008E4
:104D20006F626A2D3E70696E20213D202850696EA9
:104D30004E616D65294E43000180704770B5044691
:104D40000D46002020606060A060E060294620469B
:104D500001F0CCF8204670BD2DE9F04104460D4627
:104D60002F463E4600BF00BF00BFB4F90000401C04
:104D700020B9342209490AA001F054FA00BF1EB13B
:104D8000E1686068086003E0A0880004E1680860EA
:104D900000BF00BF2046BDE8F0810000F48E00088F
:104DA0006F626A2D3E70696E20213D202850696E29
:104DB0004E616D65294E430070B504462068416A16
:104DC0002046884720680122002103692046984731
:104DD0000546681C30B92068816A204688474FF034
:104DE000FF3070BD206802220021036920469847E9
:104DF0000646206800222946036920469847206815
:104E0000816A204688473046EBE7704770470000CC
:104E100070B504460F4820600F4803F04FFB05466D
:104E20004FF0FF3100F0E0FA002009E00B4951F8A3
:104E30002010A14203D10021084A42F82010401C52
:104E40001028F3D3044803F039FB054600F0D4FAE8
:104E5000204670BD108D00086C2600202C260020F6
:104E600070B505460C46214605F14C0002F098FF4E
:104E7000204670BD2DE9F04105460E462F4607F14C
:104E8000980000EB0614E06800B904E02146D4E97C
:104E90000202904700BFBDE8F0812DE9F0410446D1
:104EA00004F14C0002F0E2FE064606F47C5704F1E1
:104EB000380003F07FFB28B127B1394604F13800F0
:104EC00003F00AFB06F0FC0504F1280003F072FB76
:104ED00028B125B1294604F1280003F0FDFABDE808
:104EE000F08170B504460D46206801682046884769
:104EF000294604F14C0002F0A9FDC4F8B85020681E
:104F000041682046884770BD704770472DE9F843D7
:104F100004460F46904621482060251D2646002065
:104F200000901F4831460CC8284603F01BFB00BF09
:104F30002C1F002104F1280003F0DCFAA0F1280462
:104F4000002104F1380003F0D5FAA0F13804002064
:104F500084F8480084F849004C2104F14C00FBF728
:104F6000AEFF022310220F4904F1980000F026FB47
:104F7000A0F198044FF41650C4F8B80042463946E0
:104F800004F14C0002F06CFD2246074904F14C008C
:104F900002F05EFE2046BDE8F8830000448D000864
:104FA000008C0008A5300008754E000810B50446B6
:104FB00000212046FBF79CFD10BD10B504464FF0C4
:104FC000FF3104F1D40000F00FFA10BD70B50446B3
:104FD0000D4629462046FFF743FF70BD10B5044635
:104FE00004F1D40000F008FA10BD00002DE9F041F2
:104FF00004460E4617461D463A4631462046FFF700
:1050000085FF0446294604F1BC0000F07FF8A0F1BA
:10501000BC04084820605C30C02108513C38C4F80A
:10502000BC0004F1D40000F0EDF9A0F1D404204656
:10503000BDE8F0815C8D000810B504460D48206085
:105040005C30C02108513C38C4F8BC0004F1D400E5
:1050500000F002FAA0F1D404183800F07BF8A0F1B7
:10506000BC04204604492160011D00BF081F00BF89
:10507000044610BD5C8D0008448D000801460020E8
:1050800070470146002070470346002070472DE915
:10509000F04105460E461746344604EB07082868DB
:1050A000416A2846884708E014F8011B2868C26A4C
:1050B00028469047401C00B901E04445F4D100BFA8
:1050C0002868816A28468847A01BBDE8F081014610
:1050D000002070470FB438B504462068416A204666
:1050E000884706A800906069FBF771FD6069009A27
:1050F0000599FBF783FA0546002000902068816A35
:1051000020468847284638BC5DF814FB3EB5044667
:105110000D462946204600F0DBF804460A48206088
:105120003C30606000206061224608A16846FBF7C1
:105130006BFA07A16846FBF7D9FD60616069FFF76C
:1051400035FF20463EBD0000C88D00083A2570009E
:10515000772B000010B50446064820603C306060A4
:105160006069FBF7F5FC204600F0C8F804462046CD
:1051700010BD0000C88D000870B50546044803F056
:105180009DF904464FF0FF3100F02EF970BD00008C
:10519000F425002070B50546034803F08FF9044656
:1051A00000F02AF970BD0000F42500200146087BBC
:1051B000704700002DE9F04106460D46154803F002
:1051C0007DF907464FF0FF3100F00EF912480468F0
:1051D00016E0A06898B12A463146A068FBF7F2FDB8
:1051E00068B9A068FBF7CFFDA84208D1094803F0D1
:1051F00065F9074600F000F92046BDE8F0816468D3
:10520000002CE6D1034803F059F9074600F0F4F802
:105210000020F2E710260020140200202DE9F041C2
:1052200004460D4616461048206000206060A560C8
:1052300026730E4803F042F907464FF0FF3100F0A5
:10524000D3F82DB10A48006860600948046001E0A5
:1052500000206060054803F031F9074600F0CCF803
:105260002046BDE8F08100002C8E000810260020AA
:105270001402002070B5044612482060124803F062
:105280001DF905464FF0FF3100F0AEF8A06888B177
:105290000E480068A04203D10C496068086009E02C
:1052A0000A49086800E040684168A142FBD1616892
:1052B000416000BF044803F001F9054600F09CF886
:1052C000204670BD2C8E00081026002014020020FD
:1052D00070B504460D460749216000222946201D6D
:1052E000FFF79CFF041F04482060343060602046B4
:1052F00070BD0000108D00083C8E000810B50446FB
:10530000201DFFF7B7FF041F2046FFF781FD04466D
:10531000204610BD10B50446204600F005F808B13F
:10532000606810BD0020FCE710B50446606808B94D
:10533000002010BD6068FFF739FF012800D1F8E7B1
:105340000020F6E710B50446204600F011F830B111
:10535000606810B16068001F10BD0020FCE70020ED
:10536000FAE70146486808B1012070470020FCE7D1
:1053700010B50446606808B9002010BD6068FFF7EA
:1053800015FF08B90120F8E70020F6E70146086894
:1053900070472DE9F04104460D4600202060606012
:1053A00028782F2801D1687810B92046BDE8F0810F
:1053B0006E1C266000270EE0216808782F2803D194
:1053C0002168491C216007E000B905E07F1C2168C5
:1053D000491C216000BFEFE700BF39463046FFF7A8
:1053E000E9FE60602046E1E770B504460D462946B7
:1053F000206801F093F870BD10B50446206801F0F4
:105400007DF810BD10B504460020A060E06020616A
:10541000606104F108006060201D01F041F8206027
:10542000206810B902A000F0D2FC204610BD000098
:105430004572726F7220696E697469616C697A690C
:105440006E6720746865206D75746578206F626A78
:105450006563740A0000000010B50446206801F07E
:105460003DF8204610BD1FB50446B4F9001068464B
:10547000FFF764FC01216846FFF76EFC002004B0D2
:1054800010BD1FB50446B4F900106846FFF756FC7E
:1054900000216846FFF760FC002004B010BD0180C9
:1054A000704700002DE9FE4305466C46B5F90080C3
:1054B000174800902046FFF75FFE4146201D00F090
:1054C00035FB2046FFF766FE00BF4FF0000813E0F3
:1054D0006C462068816820468847201D00F0C4FB88
:1054E00081462068C1682046884700BF4F4402209B
:1054F00002F070FF08F10108B8F10A0FE8DB0A209A
:1055000097FBF0F6684600BF3046BDE8FE8300001A
:10551000148E00080180704710B50446BC3C20463C
:10552000FFF74BFD10BD70B504460D46BC3C294647
:105530002046FFF74BFD70BD10B50446BC3C20462D
:10554000FFF74CFD10BD03B401984100009850EAEC
:10555000C12018BF04204A0D18BF40F0010040F2DE
:10556000FF72B2EB515F08BF40F00200012808BF94
:10557000052002B07047000070B502460B460E4C85
:1055800021682468B4F1006F10D10C464FF000512F
:10559000002004E054F8205041F82050401C6628B8
:1055A000F8D34FF00055044E356000BF02F11004EF
:1055B00041F8243070BD000008ED00E02DE9F04115
:1055C0001C4617460E00804607D0054602E02846D6
:1055D000B0473D442046641EF9D24046BDE8F08104
:1055E0000020FCF72CBAEFF314807047EFF305802E
:1055F0007047000010B500230A2209210A48FFF76E
:10560000F5FC0446094A0A49FBF7A6FB1E21094896
:10561000FFF792FB2E210848FFF741FF04210748BE
:10562000FFF778FF10BD000088260020000000086A
:1056300039500008300200203202002034020020DD
:10564000074810B5007848B102F0ECF930B10549CF
:1056500000EB400001EB4010603810BD024810BD67
:1056600099010020680C0020742700202DE9FF41DB
:1056700006460F4694469846054C6D46E01D20F0C0
:105680000704009402959DE80F0004B0BDE8F08186
:10569000D02800202DE9F04107460C4615461E464D
:1056A0002146384600F006FC601C58B131463846A9
:1056B00000F09EFC0121384600F0B4FB2946384634
:1056C00000F028FCBDE8F081F0B503460E4602F07C
:1056D000004030B122F00040C01D20F0070210252C
:1056E00003E0D01C20F003020C250AB90120F0BD14
:1056F0005019B04201D90120F9E7591919609F19D1
:105700005F609A60BF1A05E08C18BC4200D902E0C5
:105710000C602146F8E700BF0020086000BFE6E704
:1057200030380A2801D2012070470020704700005D
:1057300005490978002905D000684FF6FF71DFF8A8
:105740000CC000DF7047000099010020957100082F
:1057500070B5094C054660690C2802D307A000F01B
:1057600036FB0D48616900EB0110491C286061613E
:1057700001F078FC012070BDC40100204E6F742040
:10578000656E6F756768207374646C6962206D75EF
:1057900074657865730A00000812002004490978CE
:1057A000002903D00068DFF80CC000DF704700005C
:1057B000990100207970000870B50446032C01DAC5
:1057C000002070BDE01E074951F820500021054A15
:1057D00042F820100DB9481EF3E7286841682846B2
:1057E0008847EEE72C26002070B50546032D01DA28
:1057F000002070BDE81E064951F8204014B94FF052
:10580000FF30F6E72068816920468847F1E700000D
:105810002C26002070B50546032D01DA012070BD4D
:10582000E81E064951F8204014B94FF0FF30F6E762
:105830002068C16820468847F1E700002C26002038
:105840002DE9FC5F07460E4655493846FBF75EFBDF
:1058500020B9FFF7E9F90020BDE8FC9F514938461F
:10586000FBF754FB18B9FFF7DFF90120F4E74E49C5
:105870003846FBF74BFB18B9FFF7D6F90220EBE7E8
:105880004A4802F01BFE80464FF0FF31FFF7ACFDA7
:10589000002405E0464850F8240000B902E0641CEA
:1058A000102CF7D300BF102C08D3404802F006FE9E
:1058B0008046FFF7A1FD4FF0FF30CDE74FF0FF30FE
:1058C0003B4941F82400394802F0F8FD8046FFF7D3
:1058D00093FD38783A2806D101AA36A13846FBF75D
:1058E00043F8019D50E039466846FFF752FD68468F
:1058F000FFF737FD28B900202D4941F82400401E4C
:10590000AAE76846FFF734FD20B16846FFF71AFDA5
:10591000054638E06846FFF7FDFC8146B9F1000F07
:1059200005D10020224941F82400401E94E730466A
:10593000014600F002020AB102210AE000F004026E
:105940000AB1012105E000F008020AB1092100E0D6
:10595000002100F00C020AB141F4007100F00402D1
:105960000AB141F4806100BF8A46C8466846FFF725
:105970000DFD8346D8F800005246594683684046DC
:105980009847054600BF00BF2DB90020084941F8DF
:105990002400401E60E7064840F82450E01C5BE706
:1059A000E08B0008E78B0008EF8B00086C260020D6
:1059B0002C2600203A25700070B505460E46032DB2
:1059C00001DA002070BDE81E064951F8204014B9E4
:1059D0004FF0FF30F6E72068002231460369204689
:1059E0009847EFE72C2600202DE9F0470646884629
:1059F00014469946032E10DA1148006808B9FFF7DB
:105A000013F9002705E018F807100E4802F0C8F94E
:105A10007F1CA742F7D3254610E0F01E0A4951F833
:105A200020701FB94FF0FF30BDE8F087386822467C
:105A30004146036838469847054600BF601BF3E7B8
:105A4000080200206C2500202C2600201FB50446EB
:105A50000020009001900290039033492068086074
:105A600001200190029000200390A079132844D2D5
:105A7000DFE800F00A0D101316191C1F2225282B31
:105A80002E3134373A3D40000020009038E00120AC
:105A9000009035E00220009032E0032000902FE0DB
:105AA000042000902CE00520009029E006200090C2
:105AB00026E00720009023E00820009020E0092045
:105AC00000901DE00A2000901AE00B20009017E0E3
:105AD0000C20009014E00D20009011E00E200090AA
